:020000040800F2
:1000000000000120ED0E0008510E0008570E0008F8
:100010005D0E0008630E0008690E00080000000075
:100020000000000000000000000000006F0E00084B
:100030007D0E0008000000008B0E0008990E0008DD
:100040003D0F00083D0F00083D0F00083D0F000860
:100050003D0F00083D0F00083D0F00083D0F000850
:100060003D0F0008A50E00083D0F00083D0F0008D9
:100070003D0F00083D0F00083D0F00083D0F000830
:100080003D0F00083D0F00083D0F00080000000074
:100090000000000000000000000000003D0F00080C
:1000A0003D0F00083D0F00083D0F00083D0F000800
:1000B0003D0F00083D0F00083D0F00083D0F0008F0
:1000C0003D0F00083D0F00083D0F00083D0F0008E0
:1000D0003D0F0008B50E00083D0F000800000000AD
:1000E0003D0F00083D0F00083D0F00080000000014
:1000F0000000000000000000000000003D0F0008AC
:10010000000000003D0F00083D0F00083D0F0008F3
:1001100000000000000000000000000000000000DF
:100120003D0F00083D0F00083D0F00083D0F00087F
:100130003D0F00080000000000000000000000006B
:100140000000000000000000000000003D0F00085B
:100150003D0F00083D0F00083D0F00083D0F00084F
:100160003D0F00083D0F00080000000000000000E7
:10017000000000000000000000000000000000007F
:10018000000000003D0F000800000000000000001B
:040190003D0F000817
:1001940010B5054C237833B9044B13B10448AFF3BD
:1001A40000800123237010BD0C000020000000001B
:1001B4003C3E000808B5034B1BB103490348AFF3A9
:1001C400008008BD00000000100000203C3E000834
:1001D40053B94AB9002908BF00281CBF4FF0FF31AA
:1001E4004FF0FF3000F074B9ADF1080C6DE904CEA6
:1001F40000F006F8DDF804E0DDE9022304B07047FE
:100204002DE9F047089D04468E46002B4DD18A42C5
:10021400944669D9B2FA82F252B101FA02F3C2F1F8
:10022400200120FA01F10CFA02FC41EA030E944089
:100234004FEA1C48210CBEFBF8F61FFA8CF708FBAA
:1002440016E341EA034306FB07F199420AD91CEB82
:10025400030306F1FF3080F01F81994240F21C81B4
:10026400023E63445B1AA4B2B3FBF8F008FB1033FC
:1002740044EA034400FB07F7A7420AD91CEB040431
:1002840000F1FF3380F00A81A74240F20781644401
:10029400023840EA0640E41B00261DB1D440002386
:1002A400C5E900433146BDE8F0878B4209D9002DEA
:1002B40000F0EF800026C5E9000130463146BDE874
:1002C400F087B3FA83F6002E4AD18B4202D38242DE
:1002D40000F2F980841A61EB030301209E46002D8D
:1002E400E0D0C5E9004EDDE702B9FFDEB2FA82F2E2
:1002F400002A40F09280A1EB0C014FEA1C471FFA40
:100304008CFE0126200CB1FBF7F307FB131140EA26
:1003140001410EFB03F0884208D91CEB010103F1F3
:10032400FF3802D2884200F2CB804346091AA4B2B5
:10033400B1FBF7F007FB101144EA01440EFB00FE89
:10034400A64508D91CEB040400F1FF3102D2A645EE
:1003540000F2BB800846A4EB0E0440EA03409CE78D
:10036400C6F12007B34022FA07FC4CEA030C20FA3A
:1003740007F401FA06F31C43F9404FEA1C4900FA5A
:1003840006F3B1FBF9F8200C1FFA8CFE09FB1811D7
:1003940040EA014108FB0EF0884202FA06F20BD94A
:1003A4001CEB010108F1FF3A80F08880884240F29A
:1003B4008580A8F102086144091AA4B2B1FBF9F0DE
:1003C40009FB101144EA014100FB0EFE8E4508D9D9
:1003D4001CEB010100F1FF346CD28E456AD902385E
:1003E400614440EA0840A0FB0294A1EB0E01A14243
:1003F400C846A64656D353D05DB1B3EB080261EBB1
:100404000E0101FA07F722FA06F3F1401F43C5E98A
:10041400007100263146BDE8F087C2F12003D840C0
:100424000CFA02FC21FA03F3914001434FEA1C4702
:100434001FFA8CFEB3FBF7F007FB10360B0C43EAF4
:10044400064300FB0EF69E4204FA02F408D91CEBA4
:10045400030300F1FF382FD29E422DD902386344A2
:100464009B1B89B2B3FBF7F607FB163341EA034142
:1004740006FB0EF38B4208D91CEB010106F1FF3891
:1004840016D28B4214D9023E6144C91A46EA004688
:1004940038E72E46284605E70646E3E61846F8E61A
:1004A4004B45A9D2B9EB020864EB0C0E0138A3E763
:1004B4004646EAE7204694E74046D1E7D0467BE744
:1004C400023B614432E7304609E76444023842E7BC
:1004D400704700BF80B584B000AF00F02FFD00F07E
:1004E4000DF900F055FA00F069F900F003FA00F094
:1004F40025FA00F0B3F97C4801F094FD7A4B1B68AF
:100504005B6A3B812D23FB715423BB710023FB6089
:1005140008E0F91D32230122744802F0F8FBFB685D
:100524000133FB60FB680A2BF3DD3223FB72B91D38
:10053400322301226D4802F0EAFB6D4AFB7A5363D1
:1005440000216C4801F022FEFB7A632B01D964235D
:10055400FB72FB7A0A2B01D80A23FB725423BB716A
:10056400B91D32230122614802F063FCBB79542B8C
:1005740000F0A280BB79462B1BD1012220215E48CA
:1005840001F076F8002240215B4801F071F8012265
:100594008021594801F06CF800224FF480715648CC
:1005A40001F066F8FB7A0A33FB72514AFB7A536313
:1005B4007BE0BB79422B1BD1002220214E4801F065
:1005C40057F8012240214C4801F052F800228021C2
:1005D400494801F04DF801224FF48071464801F07A
:1005E40047F8FB7A0A3BFB72414AFB7A53635CE0AF
:1005F400BB794C2B15D1012220213F4801F038F85A
:10060400002240213C4801F033F8002280213A487E
:1006140001F02EF800224FF48071374801F028F8D9
:1006240043E0BB79522B15D100222021324801F03E
:100634001FF800224021304801F01AF801228021DD
:100644002D4801F015F800224FF480712A4801F07A
:100654000FF82AE0BB79572B06D1FB7A0A33FB72D9
:10066400234AFB7A536320E0BB79772B06D1FB7ACC
:100674000A3BFB721E4AFB7A536316E000222021D8
:100684001D4800F0F5FF002240211B4800F0F0FF58
:1006940000228021184800F0EBFF00224FF4807103
:1006A400154800F0E5FF5423BB71B91D3223012224
:1006B4000E4802F02CFB47E7002220210E4800F0F0
:1006C400D7FF002240210C4800F0D2FF00228021F5
:1006D400094800F0CDFF00224FF48071064800F075
:1006E400C7FF5423BB712FE7B8000020000100208E
:1006F40000440140700000200000024080B594B026
:1007040000AF07F1200330220021184603F08CFBD0
:1007140007F10C0300221A605A609A60DA601A61C9
:100724000023BB60234B1B6C224A43F080531364A9
:10073400204B1B6C03F08053BB60BB6800237B60C1
:100744001D4B1B6823F440431B4A43F400431360CE
:10075400194B1B6803F440437B607B6802233B62B4
:100764000123FB6210233B630023BB6307F12003D7
:10077400184600F0AFFF0346002B01D000F040FA0A
:100784000F23FB6000233B6100237B610023BB61DB
:100794000023FB6107F10C030021184601F012FA53
:1007A4000346002B01D000F02BFA00BF5037BD46A2
:1007B40080BD00BF003802400070004080B586B0A4
:1007C40000AF07F1080300221A605A609A60DA60E9
:1007D4003B4600221A605A601E4B1F4A1A601D4B8A
:1007E40000225A601B4B00229A601A4B4FF6FF728C
:1007F400DA60184B00221A61164B00225A61154B1D
:1008040000229A61134801F0BDFB0346002B01D07E
:1008140000F0F6F94FF48053BB6007F10803194662
:100824000C4801F025FE0346002B01D000F0E8F946
:1008340000233B6000237B603B461946054802F0D9
:10084400ABF90346002B01D000F0DAF900BF1837EA
:10085400BD4680BD280000200000014080B588B05E
:1008640000AF3B1D00221A605A609A60DA601A6178
:100874005A619A611D4B1E4A1A601C4B0F225A6022
:100884001A4B00229A60194B6322DA60174B00223C
:100894001A61164B00229A61144801F073FB034657
:1008A400002B01D000F0ACF9104801F015FC034610
:1008B400002B01D000F0A4F960237B600023BB600F
:1008C4000023FB6000237B613B1D0022194607487F
:1008D40001F00CFD0346002B01D000F091F9034810
:1008E40000F00AFA00BF2037BD4680BD700000202A
:1008F4000044014080B500AF0E4B0F4A1A600D4B07
:100904000F225A600B4B00229A600A4B4FF6FF727B
:10091400DA60084B00221A61064B00229A610548EE
:1009240001F030FB0346002B01D000F069F900BF51
:1009340080BD00BFB80000200048014080B500AF72
:10094400114B124A1A60104B4FF416525A600E4B58
:1009540000229A600C4B0022DA600B4B00221A61D1
:10096400094B0C225A61084B00229A61064B002263
:10097400DA61054802F07EF90346002B01D000F04D
:100984003FF900BF80BD00BF0001002000100140FE
:1009940080B58AB000AF07F1140300221A605A60D0
:1009A4009A60DA601A6100233B613E4B1B6B3D4A3F
:1009B40043F0040313633B4B1B6B03F004033B61E1
:1009C4003B690023FB60374B1B6B364A43F08003C3
:1009D4001363344B1B6B03F08003FB60FB68002341
:1009E400BB60304B1B6B2F4A43F0010313632D4B49
:1009F4001B6B03F00103BB60BB6800237B60294BC6
:100A04001B6B284A43F002031363264B1B6B03F052
:100A140002037B607B680022E321234800F028FE68
:100A240001224FF48271204800F022FE002280212E
:100A34001E4800F01DFE40F2E7137B610123BB61F9
:100A44000023FB6100233B6207F114031946164897
:100A540000F08AFC08237B614FF40413BB6100237C
:100A6400FB6107F1140319460F4800F07DFC802355
:100A74007B610123BB610023FB6100233B6207F11F
:100A840014031946094800F06FFC002200210920D4
:100A940000F0A1FB092000F0BAFB00BF2837BD46D7
:100AA40080BD00BF00380240000002400004024044
:100AB40080B584B000AF0346FB800A237B730D230B
:100AC4003B731A4B1B78DBB20133DAB2174B1A7043
:100AD4003123FB733023BB73FB88082B20D1144BC9
:100AE4001B889AB2134B1B685B6A9BB2D31A9BB2E6
:100AF400184600F023F807F10D01322301220E48B5
:100B040002F005F907F10C01322301220A4802F030
:100B1400FEF8084B1B685B6A9AB2054B1A8000E02A
:100B240000BF00BF1037BD4680BD00BF4401002098
:100B340046010020B80000200001002080B588B0E4
:100B440000AF0346FB8000233B6107F1140300223E
:100B54001A609A800023FB7746237B7719E0FA8892
:100B6400254BA3FB0213D9080B469B000B445B00E7
:100B7400D31A9AB2FB7FD2B220333B4403F8102C31
:100B8400FB7F0133FB77FB881B4AA2FB0323DB08B3
:100B9400FB80FB88002BE2D1FB7F013BDBB2BB7700
:100BA40021E097F91E3020333B4413F8102CF97FD1
:100BB40097F91E30CB1A3032D2B220333B4403F8BB
:100BC400182CFA7F97F91E30D31A07F10802D118AE
:100BD40005230122094802F09AF897F91E30DBB286
:100BE400013BDBB2BB7797F91E30002BD9DA00BF8B
:100BF4002037BD4680BD00BFCDCCCCCC0001002049
:100C040080B400AF72B600BFFEE7000080B483B0CA
:100C140000AF00237B60104B5B6C0F4A43F48043AE
:100C240053640D4B5B6C03F480437B607B6800234F
:100C34003B60094B1B6C084A43F080531364064B1A
:100C44001B6C03F080533B603B6800BF0C37BD4610
:100C54005DF8047B704700BF0038024080B487B061
:100C640000AF78607B681B681F4A93420ED1002353
:100C74007B611E4B5B6C1D4A43F0010353641B4BA9
:100C84005B6C03F001037B617B6926E07B681B6876
:100C9400174A93420ED100233B61144B5B6C134AF9
:100CA40043F400335364114B5B6C03F400333B6136
:100CB4003B6912E07B681B680E4A93420DD1002306
:100CC400FB600A4B5B6C094A43F480235364074B73
:100CD4005B6C03F48023FB60FB6800BF1C37BD46DC
:100CE4005DF8047B704700BF0000014000380240FB
:100CF400004401400048014080B588B000AF7860EE
:100D040007F10C0300221A605A609A60DA601A61D3
:100D14007B681B68124A93421ED10023BB60114BAF
:100D24001B6B104A43F0020313630E4B1B6B03F05F
:100D34000203BB60BB684FF48073FB6002233B611A
:100D440000237B610023BB610323FB6107F10C03D8
:100D54001946054800F008FB00BF2037BD4680BD9A
:100D640000440140003802400004024080B58AB0CB
:100D740000AF786007F1140300221A605A609A6089
:100D8400DA601A617B681B682C4A934252D10023B3
:100D94003B612B4B5B6C2A4A43F010035364284B92
:100DA4005B6C03F010033B613B690023FB60244B45
:100DB4001B6B234A43F001031363214B1B6B03F0AA
:100DC4000103FB60FB680023BB601D4B1B6B1C4ACB
:100DD40043F0020313631A4B1B6B03F00203BB6063
:100DE400BB684FF480637B610223BB610023FB611A
:100DF40003233B6207237B6207F11403194611485E
:100E040000F0B2FA40237B610223BB610023FB6143
:100E140003233B6207237B6207F1140319460A4844
:100E240000F0A2FA00220021252000F0D4F92520A8
:100E340000F0EDF900BF2837BD4680BD0010014029
:100E440000380240000002400004024080B400AFB9
:100E5400FEE780B400AFFEE780B400AFFEE780B4E5
:100E640000AFFEE780B400AFFEE780B400AF00BF80
:100E7400BD465DF8047B704780B400AF00BFBD463B
:100E84005DF8047B704780B400AF00BFBD465DF8D9
:100E9400047B704780B500AF00F0A2F800BF80BDAE
:100EA40080B500AF082000F0FDFB00BF80BD00004E
:100EB40080B500AF024802F05FF800BF80BD00BFFC
:100EC4000001002080B400AF064BD3F88830054AF7
:100ED40043F47003C2F8883000BFBD465DF8047B5C
:100EE400704700BF00ED00E0DFF834D00D480E4934
:100EF4000E4A002302E0D458C4500433C4188C4270
:100F0400F9D30B4A0B4C002301E013600432A242D4
:100F1400FBD3FFF7D7FF02F063FFFFF7DBFA70475D
:100F240000000120000000200C0000207C3E00088E
:100F34000C0000204C010020FEE7000080B500AF4B
:100F44000E4B1B680D4A43F4007313600B4B1B6874
:100F54000A4A43F480631360084B1B68074A43F44E
:100F640080731360032000F02BF90F2000F008F8C1
:100F7400FFF74CFE0023184680BD00BF003C024032
:100F840080B582B000AF7860124B1A68124B1B78A0
:100F940019464FF47A73B3FBF1F3B2FBF3F318463B
:100FA40000F043F90346002B01D001230EE07B68D7
:100FB4000F2B0AD8002279684FF0FF3000F00BF9AC
:100FC400064A7B681360002300E0012318460837B3
:100FD400BD4680BD00000020080000200400002061
:100FE40080B400AF064B1B781A46064B1B681344AB
:100FF400044A136000BFBD465DF8047B704700BF20
:10100400080000204801002080B400AF034B1B6897
:101014001846BD465DF8047B704700BF48010020B8
:1010240080B485B000AF78607B6803F00703FB6091
:101034000C4BDB68BB60BA684FF6FF031340BB6020
:10104400FB681A02BB68134343F0BF6343F40033E5
:10105400BB60044ABB68D36000BF1437BD465DF86B
:10106400047B704700ED00E080B400AF044BDB6804
:101074001B0A03F007031846BD465DF8047B70475E
:1010840000ED00E080B483B000AF0346FB7197F934
:101094000730002B0BDBFB7903F01F02074997F99C
:1010A40007305B09012000FA02F241F8232000BF57
:1010B4000C37BD465DF8047B704700BF00E100E0DB
:1010C40080B483B000AF03463960FB7197F90730F1
:1010D400002B0ADB3B68DAB20C4997F9073012019E
:1010E400D2B20B4483F800230AE03B68DAB2084921
:1010F400FB7903F00F03043B1201D2B20B441A76BE
:1011040000BF0C37BD465DF8047B704700E100E08A
:1011140000ED00E080B489B000AFF860B9607A6097
:10112400FB6803F00703FB61FB69C3F10703042BAE
:1011340028BF0423BB61FB690433062B02D9FB6976
:10114400033B00E000237B614FF0FF32BB6902FAEE
:1011540003F3DA43BB681A407B699A404FF0FF31CE
:101164007B6901FA03F3D9437B680B4013431846A8
:101174002437BD465DF8047B7047000080B582B01B
:1011840000AF78607B68013BB3F1807F01D301231A
:101194000FE00A4A7B68013B53600F214FF0FF3098
:1011A400FFF78EFF054B00229A60044B07221A605A
:1011B400002318460837BD4680BD00BF10E000E09C
:1011C40080B582B000AF78607868FFF729FF00BF70
:1011D4000837BD4680BD80B586B000AF0346B96010
:1011E4007A60FB7300237B61FFF73EFF78617A68C6
:1011F400B9687869FFF78EFF024697F90F301146F8
:101204001846FFF75DFF00BF1837BD4680BD80B5A7
:1012140082B000AF0346FB7197F907301846FFF719
:1012240031FF00BF0837BD4680BD80B582B000AF36
:1012340078607868FFF7A2FF034618460837BD4672
:1012440080BD80B584B000AF78607B689B6DFB6027
:10125400FFF7DAFEB8607B6893F83530DBB2022B17
:1012640008D07B6880225A657B68002283F834208A
:10127400012352E07B681B681A687B681B6822F0B4
:1012840016021A607B681B685A697B681B6822F027
:1012940080025A617B681B6C002B03D17B689B6CBA
:1012A400002B07D07B681B681A687B681B6822F0D8
:1012B40008021A607B681B681A687B681B6822F046
:1012C40001021A6013E0FFF79FFE0246BB68D31ABF
:1012D400052B0CD97B6820225A657B68032283F88E
:1012E40035207B68002283F83420032315E07B68D3
:1012F4001B681B6803F00103002BE4D17B68DB6DE2
:101304003F229A40FB689A607B68012283F835206B
:101314007B68002283F83420002318461037BD462A
:1013240080BD80B483B000AF78607B6893F83530BB
:10133400DBB2022B04D07B6880225A6501230CE0C7
:101344007B68052283F835207B681B681A687B68F4
:101354001B6822F001021A60002318460C37BD46B0
:101364005DF8047B7047000080B489B000AF7860FA
:10137400396000237B6100233B610023BB610023B0
:10138400FB6159E10122FB6902FA03F37B613B68CB
:101394001B687A6913403B613A697B699A4240F061
:1013A40048813B685B6803F00303012B05D03B686D
:1013B4005B6803F00303022B30D17B689B68BB613D
:1013C400FB695B00032202FA03F3DB43BA691340AF
:1013D400BB613B68DA68FB695B0002FA03F3BA6934
:1013E4001343BB617B68BA699A607B685B68BB61C5
:1013F4000122FB6902FA03F3DB43BA691340BB61C0
:101404003B685B681B0903F00102FB6902FA03F302
:10141400BA691343BB617B68BA695A603B685B680D
:1014240003F00303032B17D07B68DB68BB61FB6904
:101434005B00032202FA03F3DB43BA691340BB6186
:101444003B689A68FB695B0002FA03F3BA691343C9
:10145400BB617B68BA69DA603B685B6803F00303CD
:10146400022B23D1FB69DA087B68083253F8223057
:10147400BB61FB6903F007039B000F2202FA03F32D
:10148400DB43BA691340BB613B681A69FB6903F02B
:1014940007039B0002FA03F3BA691343BB61FB69B8
:1014A400DA087B680832B96943F822107B681B6844
:1014B400BB61FB695B00032202FA03F3DB43BA69F5
:1014C4001340BB613B685B6803F00302FB695B008C
:1014D40002FA03F3BA691343BB617B68BA691A6001
:1014E4003B685B6803F44033002B00F0A2800023C8
:1014F400FB60574B5B6C564A43F480435364544B34
:101504005B6C03F48043FB60FB68524AFB699B08F5
:10151400023352F82330BB61FB6903F003039B00E1
:101524000F2202FA03F3DB43BA691340BB617B6801
:10153400494A934219D07B68484A934213D07B6846
:10154400474A93420DD07B68464A934207D07B6852
:10155400454A934201D1042308E0072306E003230C
:1015640004E0022302E0012300E00023FA6902F010
:10157400030292009340BA691343BB613549FB6986
:101584009B080233BA6941F82320384B9B68BB613E
:101594003B69DB43BA691340BB613B685B6803F496
:1015A4008013002B03D0BA693B691343BB612F4AF4
:1015B400BB6993602D4BDB68BB613B69DB43BA6954
:1015C4001340BB613B685B6803F40013002B03D03A
:1015D400BA693B691343BB61244ABB69D360234B9B
:1015E4005B68BB613B69DB43BA691340BB613B6821
:1015F4005B6803F40033002B03D0BA693B691343DF
:10160400BB611A4ABB695360184B1B68BB613B69D9
:10161400DB43BA691340BB613B685B6803F4803306
:10162400002B03D0BA693B691343BB610F4ABB6902
:101634001360FB690133FB61FB690F2B7FF6A2AEDC
:1016440000BF00BF2437BD465DF8047B704700BF70
:10165400003802400038014000000240000402400B
:1016640000080240000C024000100240003C01400F
:1016740080B483B000AF78600B467B8013467B70E8
:101684007B78002B03D07A887B689A6103E07B889F
:101694001A047B689A6100BF0C37BD465DF8047B71
:1016A4007047000080B582B000AF0346FB80084B52
:1016B4005A69FB881340002B06D0054AFB88536106
:1016C400FB881846FFF7F4F900BF0837BD4680BD14
:1016D400003C014080B586B000AF78607B68002B89
:1016E40001D1012367E27B681B6803F00103002B2F
:1016F40075D0884B9B6803F00C03042B0CD0854BEE
:101704009B6803F00C03082B12D1824B5B6803F433
:101714008003B3F5800F0BD17E4B1B6803F40033B9
:10172400002B5BD07B685B68002B57D1012342E21E
:101734007B685B68B3F5803F06D1764B1B68754ABE
:1017440043F4803313601DE07B685B68B3F5A02F1E
:101754000CD1704B1B686F4A43F4802313606D4BAC
:101764001B686C4A43F4803313600BE0694B1B68BD
:10177400684A23F480331360664B1B68654A23F47C
:10178400802313607B685B68002B13D0FFF73CFC5D
:10179400386108E0FFF738FC02463B69D31A642B32
:1017A40001D9032307E25B4B1B6803F40033002BCE
:1017B400F0D014E0FFF728FC386108E0FFF724FCC0
:1017C40002463B69D31A642B01D90323F3E1514B3D
:1017D4001B6803F40033002BF0D100E000BF7B68EA
:1017E4001B6803F00203002B63D04A4B9B6803F091
:1017F4000C03002B0BD0474B9B6803F00C03082B06
:101804001CD1444B5B6803F48003002B16D1414B7D
:101814001B6803F00203002B05D07B68DB68012BF7
:1018240001D00123C7E13B4B1B6823F0F8027B681E
:101834001B69DB00374913430B603AE07B68DB68C4
:10184400002B20D0344B01221A60FFF7DDFB3861F6
:1018540008E0FFF7D9FB02463B69D31A022B01D9F2
:101864000323A8E12B4B1B6803F00203002BF0D0E9
:10187400284B1B6823F0F8027B681B69DB002549B1
:1018840013430B6015E0244B00221A60FFF7BCFBE6
:10189400386108E0FFF7B8FB02463B69D31A022B14
:1018A40001D9032387E11B4B1B6803F00203002BC0
:1018B400F0D17B681B6803F00803002B36D07B68EB
:1018C4005B69002B16D0154B01221A60FFF79CFBB5
:1018D400386108E0FFF798FB02463B69D31A022BF4
:1018E40001D9032367E10B4B5B6F03F00203002B69
:1018F400F0D01BE0094B00221A60FFF785FB38612A
:101904000EE0FFF781FB02463B69D31A022B07D98D
:10191400032350E10038024000004742800E474252
:10192400884B5B6F03F00203002BEAD17B681B68D2
:1019340003F00403002B00F097800023FB75814B18
:101944001B6C03F08053002B0FD10023BB607D4B35
:101954001B6C7C4A43F0805313647A4B1B6C03F07A
:101964008053BB60BB680123FB75774B1B6803F492
:101974008073002B18D1744B1B68734A43F4807333
:101984001360FFF741FB386108E0FFF73DFB0246B7
:101994003B69D31A022B01D903230CE16A4B1B6860
:1019A40003F48073002BF0D07B689B68012B06D175
:1019B400644B1B6F634A43F0010313671CE07B68AD
:1019C4009B68052B0CD15F4B1B6F5E4A43F00403ED
:1019D40013675C4B1B6F5B4A43F0010313670BE017
:1019E400584B1B6F574A23F001031367554B1B6F6A
:1019F400544A23F0040313677B689B68002B15D0BB
:101A0400FFF702FB38610AE0FFF7FEFA02463B6982
:101A1400D31A41F28832934201D90323CBE0494BD4
:101A24001B6F03F00203002BEED014E0FFF7ECFA77
:101A340038610AE0FFF7E8FA02463B69D31A41F23B
:101A44008832934201D90323B5E03E4B1B6F03F068
:101A54000203002BEED1FB7D012B05D1394B1B6C0E
:101A6400384A23F0805313647B689B69002B00F091
:101A7400A180344B9B6803F00C03082B5CD07B687B
:101A84009B69022B41D1314B00221A60FFF7BCFA4B
:101A9400386108E0FFF7B8FA02463B69D31A022B13
:101AA40001D9032387E0274B1B6803F00073002B45
:101AB400F0D17B68DA697B681B6A1A437B685B6ACE
:101AC4009B011A437B689B6A5B08013B1B041A4316
:101AD4007B68DB6A1B061B4913434B601B4B0122CB
:101AE4001A60FFF791FA386108E0FFF78DFA0246B1
:101AF4003B69D31A022B01D903235CE0114B1B6809
:101B040003F00073002BF0D054E0104B00221A6055
:101B1400FFF77AFA386108E0FFF776FA02463B6984
:101B2400D31A022B01D9032345E0064B1B6803F0AB
:101B34000073002BF0D13DE07B689B69012B07D13A
:101B4400012338E000380240007000406000474242
:101B54001B4B5B68FB607B689B69012B28D0FB688F
:101B640003F480027B68DB699A4221D1FB6803F0AD
:101B74003F027B681B6A9A421AD1FA6847F6C0731F
:101B840013407A68526A9201934211D1FB6803F4BC
:101B940040327B689B6A5B08013B1B049A4207D175
:101BA400FB6803F070627B68DB6A1B069A4201D013
:101BB400012300E0002318461837BD4680BD00BF4E
:101BC4000038024080B584B000AF786039607B682B
:101BD400002B01D10123CCE0684B1B6803F0070301
:101BE4003A689A420CD9654B3A68D2B21A70634B80
:101BF4001B6803F007033A689A4201D00123B8E056
:101C04007B681B6803F00203002B20D07B681B68F1
:101C140003F00403002B05D0594B9B68584A43F446
:101C2400E05393607B681B6803F00803002B05D026
:101C3400534B9B68524A43F460439360504B9B68F8
:101C440023F0F0027B689B684D4913438B607B68EB
:101C54001B6803F00103002B44D07B685B68012BF5
:101C640007D1474B1B6803F40033002B19D1012320
:101C74007FE07B685B68022B03D07B685B68032B87
:101C840007D13F4B1B6803F00073002B09D10123DC
:101C94006FE03B4B1B6803F00203002B01D10123CF
:101CA40067E0374B9B6823F003027B685B68344929
:101CB40013438B60FFF7A8F9F8600AE0FFF7A4F973
:101CC4000246FB68D31A41F28832934201D90323B6
:101CD4004FE02B4B9B6803F00C027B685B689B0016
:101CE4009A42EBD1254B1B6803F007033A689A42EA
:101CF4000CD2224B3A68D2B21A70204B1B6803F004
:101D040007033A689A4201D0012332E07B681B68DA
:101D140003F00403002B08D0194B9B6823F4E05212
:101D24007B68DB68164913438B607B681B6803F090
:101D34000803002B09D0124B9B6823F460427B6894
:101D44001B69DB000E4913438B6000F021F8024647
:101D54000B4B9B681B0903F00F030A49CB5C22FA67
:101D640003F3094A1360094B1B681846FFF708F987
:101D7400002318461037BD4680BD00BF003C02401A
:101D840000380240543E00080000002004000020F7
:101D94002DE9B04F90B000AF00237B630023FB63B9
:101DA40000233B630023BB63594B9B6803F00C0384
:101DB400082B0DD0082B00F2A180002B02D0042B9D
:101DC40003D09BE0534BBB639BE0534BBB6398E056
:101DD4004F4B5B6803F03F037B634D4B5B6803F43D
:101DE4008003002B28D04A4B5B689B0900223B628E
:101DF4007A623B6AC3F308000021474B03FB01F2FC
:101E0400002300FB03F31344434AA0FB0212FA62CB
:101E14000A46BA62FA6A1344FB627B6B0022BB6116
:101E2400FA61D7E90623D7E90A01FEF7D1F9024698
:101E34000B461346FB6353E0354B5B689B0900225A
:101E44003B617A613B69C3F3080A4FF0000B5246C9
:101E54005B464FF000004FF00001590141EAD261A6
:101E6400500102460B46B2EB0A0863EB0B094FF034
:101E740000024FF000034FEA891343EA98634FEAE4
:101E84008812B2EB080463EB09054FF000024FF02F
:101E94000003EB0043EA5473E20014461D4614EBBE
:101EA4000A033B6045EB0B037B604FF000024FF0ED
:101EB4000003D7E9004529468B02214643EA9153A2
:101EC40021468A02104619467B6B0022BB60FA60E9
:101ED400D7E90223FEF77CF902460B461346FB635F
:101EE4000B4B5B681B0C03F0030301335B003B6388
:101EF400FA6B3B6BB2FBF3F3BB6302E0054BBB63D2
:101F040000BFBB6B18464037BD46BDE8B08F00BF6D
:101F1400003802400024F40040787D0180B400AF12
:101F2400034B1B681846BD465DF8047B704700BF31
:101F34000000002080B500AFFFF7F0FF0246054B1C
:101F44009B689B0A03F007030349CB5C22FA03F363
:101F5400184680BD00380240643E000880B500AFDA
:101F6400FFF7DCFF0246054B9B685B0B03F007039E
:101F74000349CB5C22FA03F3184680BD00380240C3
:101F8400643E000880B582B000AF78607B68002BA7
:101F940001D1012341E07B6893F83D30DBB2002B93
:101FA40006D17B68002283F83C207868FEF756FE51
:101FB4007B68022283F83D207B681A687B680433BF
:101FC4001946104600F01CFB7B68012283F846206A
:101FD4007B68012283F83E207B68012283F83F203E
:101FE4007B68012283F840207B68012283F841202A
:101FF4007B68012283F842207B68012283F8432016
:102004007B68012283F844207B68012283F8452001
:102014007B68012283F83D20002318460837BD461B
:1020240080BD000080B485B000AF78607B6893F811
:102034003D30DBB2012B01D001233CE07B6802225E
:1020440083F83D207B681B681E4A934218D07B6846
:102054001B68B3F1804F13D07B681B681A4A934204
:102064000ED07B681B68194A934209D07B681B68B1
:10207400174A934204D07B681B68164A934211D1D5
:102084007B681B689B6803F00703FB60FB68062BF7
:1020940010D07B681B681A687B681B6842F00102D9
:1020A4001A6007E07B681B681A687B681B6842F04B
:1020B40001021A60002318461437BD465DF8047BFC
:1020C400704700BF000001400004004000080040C9
:1020D400000C00400040014080B582B000AF786041
:1020E4007B68002B01D1012341E07B6893F83D30EC
:1020F400DBB2002B06D17B68002283F83C20786891
:1021040000F039F87B68022283F83D207B681A6866
:102114007B6804331946104600F072FA7B6801228A
:1021240083F846207B68012283F83E207B680122E5
:1021340083F83F207B68012283F840207B680122DA
:1021440083F841207B68012283F842207B680122C6
:1021540083F843207B68012283F844207B680122B2
:1021640083F845207B68012283F83D20002318462C
:102174000837BD4680BD80B483B000AF786000BF2F
:102184000C37BD465DF8047B7047000080B584B011
:1021940000AF786039603B68002B09D17B6893F805
:1021A4003E30DBB2012B14BF01230023DBB222E05B
:1021B4003B68042B09D17B6893F83F30DBB2012BD9
:1021C40014BF01230023DBB215E03B68082B09D1BF
:1021D4007B6893F84030DBB2012B14BF012300234A
:1021E400DBB208E07B6893F84130DBB2012B14BF0B
:1021F40001230023DBB2002B01D0012368E03B68FC
:10220400002B04D17B68022283F83E2013E03B6854
:10221400042B04D17B68022283F83F200BE03B6847
:10222400082B04D17B68022283F8402003E07B68FA
:10223400022283F841207B681B6801223968184612
:1022440000F084FC7B681B68234A934207D17B68B7
:102254001B685A6C7B681B6842F400425A647B68B2
:102264001B681D4A934218D07B681B68B3F1804FEA
:1022740013D07B681B68194A93420ED07B681B6895
:10228400174A934209D07B681B68164A934204D0CC
:102294007B681B68144A934211D17B681B689B6856
:1022A40003F00703FB60FB68062B10D07B681B68F8
:1022B4001A687B681B6842F001021A6007E07B68B9
:1022C4001B681A687B681B6842F001021A600023CD
:1022D40018461037BD4680BD000001400004004090
:1022E40000080040000C00400040014080B586B06A
:1022F40000AFF860B9607A600023FB75FB6893F85F
:102304003C30012B01D10223AEE0FB68012283F8AB
:102314003C207B680C2B00F29F8001A252F823F032
:10232400592300085D2400085D2400085D2400088A
:10233400992300085D2400085D2400085D2400083A
:10234400DB2300085D2400085D2400085D240008E8
:102354001B240008FB681B68B968184600F0D0F914
:10236400FB681B689A69FB681B6842F008029A6163
:10237400FB681B689A69FB681B6822F004029A6177
:10238400FB681B689969BB681A69FB681B680A4388
:102394009A6164E0FB681B68B968184600F016FA95
:1023A400FB681B689A69FB681B6842F400629A61C7
:1023B400FB681B689A69FB681B6822F480629A6157
:1023C400FB681B689969BB681B691A02FB681B6878
:1023D4000A439A6143E0FB681B68B968184600F039
:1023E40061FAFB681B68DA69FB681B6842F0080243
:1023F400DA61FB681B68DA69FB681B6822F0040277
:10240400DA61FB681B68D969BB681A69FB681B68D9
:102414000A43DA6123E0FB681B68B968184600F0D8
:10242400ABFAFB681B68DA69FB681B6842F400625C
:10243400DA61FB681B68DA69FB681B6822F4806256
:10244400DA61FB681B68D969BB681B691A02FB68FF
:102454001B680A43DA6102E00123FB7500BFFB68D5
:10246400002283F83C20FB7D18461837BD4680BD0A
:1024740080B584B000AF786039600023FB737B685B
:1024840093F83C30012B01D10223B4E07B68012294
:1024940083F83C207B68022283F83D207B681B681C
:1024A4009B68BB60BB6823F07703BB60BB6823F405
:1024B4007F43BB607B681B68BA689A603B681B6893
:1024C400B3F5005F3ED0B3F5005F00F28780B3F54B
:1024D400805F00F08680B3F5805F7FD8702B1AD0C0
:1024E400702B7BD8602B50D0602B77D8502B3CD0EE
:1024F400502B73D8402B58D0402B6FD8302B64D03E
:10250400302B6BD8202B60D0202B67D8002B5CD0CD
:10251400102B5AD062E07B6818683B6899683B6866
:102524005A683B68DB6800F0F1FA7B681B689B68BB
:10253400BB60BB6843F07703BB607B681B68BA6809
:102544009A604FE07B6818683B6899683B685A68F2
:102554003B68DB6800F0DAFA7B681B689A687B6882
:102564001B6842F480429A603CE07B6818683B68D0
:1025740059683B68DB681A4600F04EFA7B681B68B2
:102584005021184600F0A7FA2CE07B6818683B68D5
:1025940059683B68DB681A4600F06DFA7B681B6873
:1025A4006021184600F097FA1CE07B6818683B68C5
:1025B40059683B68DB681A4600F02EFA7B681B6892
:1025C4004021184600F087FA0CE07B681A683B68E3
:1025D4001B681946104600F07EFA03E00123FB73E2
:1025E40000E000BF7B68012283F83D207B68002265
:1025F40083F83C20FB7B18461037BD4680BD0000A5
:1026040080B485B000AF786039607B681B68FB607C
:102614007B68344A93420FD07B68B3F1804F0BD070
:102624007B68314A934207D07B68304A934203D097
:102634007B682F4A934208D1FB6823F07003FB6048
:102644003B685B68FA681343FB607B68254A9342E6
:102654001BD07B68B3F1804F17D07B68224A93422A
:1026640013D07B68214A93420FD07B68204A93425F
:102674000BD07B681F4A934207D07B681E4A934263
:1026840003D07B681D4A934208D1FB6823F440734E
:10269400FB603B68DB68FA681343FB60FB6823F06C
:1026A40080023B685B691343FB607B68FA681A60CD
:1026B4003B689A687B68DA623B681A687B689A624E
:1026C4007B68084A934203D13B681A697B681A63A2
:1026D4007B6801225A6100BF1437BD465DF8047B54
:1026E400704700BF000001400004004000080040A3
:1026F400000C0040004001400044014000480140FB
:1027040080B487B000AF786039607B681B6A23F0BF
:1027140001027B681A627B681B6A7B617B685B6869
:102724003B617B689B69FB60FB6823F07003FB6083
:10273400FB6823F00303FB603B681B68FA681343E0
:10274400FB607B6923F002037B613B689B687A69C9
:1027540013437B617B681C4A93420CD17B6923F051
:1027640008037B613B68DB687A6913437B617B699F
:1027740023F004037B617B68134A934211D13B69C4
:1027840023F480733B613B6923F400733B613B6832
:102794005B693A6913433B613B689B693A6913433C
:1027A4003B617B683A695A607B68FA689A613B6866
:1027B4005A687B685A637B687A691A6200BF1C375F
:1027C400BD465DF8047B70470000014080B487B0CB
:1027D40000AF786039607B681B6A23F010027B6865
:1027E4001A627B681B6A7B617B685B683B617B6800
:1027F4009B69FB60FB6823F4E043FB60FB6823F404
:102804004073FB603B681B681B02FA681343FB6060
:102814007B6923F020037B613B689B681B017A6919
:1028240013437B617B681E4A93420DD17B6923F07D
:1028340080037B613B68DB681B017A6913437B611E
:102844007B6923F040037B617B68154A934213D173
:102854003B6923F480633B613B6923F400633B6180
:102864003B685B699B003A6913433B613B689B6926
:102874009B003A6913433B617B683A695A607B6801
:10288400FA689A613B685A687B689A637B687A69DC
:102894001A6200BF1C37BD465DF8047B704700BF59
:1028A4000000014080B487B000AF786039607B6875
:1028B4001B6A23F480727B681A627B681B6A7B61E3
:1028C4007B685B683B617B68DB69FB60FB6823F0CA
:1028D4007003FB60FB6823F00303FB603B681B6829
:1028E400FA681343FB607B6923F400737B613B68E4
:1028F4009B681B027A6913437B617B681D4A934280
:102904000DD17B6923F400637B613B68DB681B02A8
:102914007A6913437B617B6923F480637B617B6801
:10292400144A934213D13B6923F480533B613B69BE
:1029340023F400533B613B685B691B013A69134311
:102944003B613B689B691B013A6913433B617B68AC
:102954003A695A607B68FA68DA613B685A687B684E
:10296400DA637B687A691A6200BF1C37BD465DF87A
:10297400047B70470000014080B487B000AF7860EA
:1029840039607B681B6A23F480527B681A627B6817
:102994001B6A3B617B685B687B617B68DB69FB600E
:1029A400FB6823F4E043FB60FB6823F44073FB60A3
:1029B4003B681B681B02FA681343FB603B6923F402
:1029C40000533B613B689B681B033A6913433B61BB
:1029D4007B68104A934209D17B6923F480437B616D
:1029E4003B685B699B017A6913437B617B687A6905
:1029F4005A607B68FA68DA613B685A687B681A64D3
:102A04007B683A691A6200BF1C37BD465DF8047BD7
:102A1400704700BF0000014080B487B000AFF86089
:102A2400B9607A60FB681B6A7B61FB681B6A23F0F0
:102A34000102FB681A62FB689B693B613B6923F0F6
:102A4400F0033B617B681B013A6913433B617B697B
:102A540023F00A037B617A69BB6813437B61FB68DB
:102A64003A699A61FB687A691A6200BF1C37BD46ED
:102A74005DF8047B704780B487B000AFF860B9603C
:102A84007A60FB681B6A23F01002FB681A62FB6819
:102A94009B697B61FB681B6A3B617B6923F4704320
:102AA4007B617B681B037A6913437B613B6923F079
:102AB400A0033B61BB681B013A6913433B61FB689C
:102AC4007A699A61FB683A691A6200BF1C37BD468D
:102AD4005DF8047B704780B485B000AF78603960DE
:102AE4007B689B68FB60FB6823F07003FB603A68BB
:102AF400FB68134343F00703FB607B68FA689A6042
:102B040000BF1437BD465DF8047B704780B487B0BE
:102B140000AFF860B9607A603B60FB689B687B61DA
:102B24007B6923F47F437B613B681A027B681A4309
:102B3400BB6813437A6913437B61FB687A699A60C3
:102B440000BF1C37BD465DF8047B704780B487B076
:102B540000AFF860B9607A60BB6803F01F0301221C
:102B640002FA03F37B61FB681A6A7B69DB431A4050
:102B7400FB681A62FB681A6ABB6803F01F03796872
:102B840001FA03F31A43FB681A6200BF1C37BD46FF
:102B94005DF8047B7047000080B485B000AF7860B6
:102BA40039607B6893F83C30012B01D1022350E05B
:102BB4007B68012283F83C207B68022283F83D2055
:102BC4007B681B685B68FB607B681B689B68BB60F9
:102BD400FB6823F07003FB603B681B68FA681343CF
:102BE400FB607B681B68FA685A607B681B681C4A38
:102BF400934218D07B681B68B3F1804F13D07B6875
:102C04001B68184A93420ED07B681B68164A93428D
:102C140009D07B681B68154A934204D07B681B6803
:102C2400134A93420CD1BB6823F08003BB603B681A
:102C34005B68BA681343BB607B681B68BA689A60B8
:102C44007B68012283F83D207B68002283F83C20C6
:102C5400002318461437BD465DF8047B704700BF57
:102C6400000001400004004000080040000C004047
:102C74000040014080B582B000AF78607B68002BD3
:102C840001D101233FE07B6893F83D30DBB2002B98
:102C940006D17B68002283F83C207868FEF766F84A
:102CA4007B68242283F83D207B681B68DA687B6894
:102CB4001B6822F40052DA60786800F01DFE7B681D
:102CC4001B681A697B681B6822F490421A617B684E
:102CD4001B685A697B681B6822F02A025A617B6868
:102CE4001B68DA687B681B6842F40052DA607B6810
:102CF40000221A647B68202283F83D207B6820220E
:102D040083F83E20002318460837BD4680BD80B5B1
:102D14008AB002AFF860B9603B601346FB800023C1
:102D24007B61FB6893F83D30DBB2202B7CD1BB6820
:102D3400002B02D0FB88002B01D1012375E0FB6836
:102D440093F83C30012B01D102236EE0FB68012291
:102D540083F83C20FB6800221A64FB68212283F874
:102D64003D20FEF751F97861FB68FA889A84FB6884
:102D7400FA88DA84FB689B68B3F5805F08D1FB6846
:102D84001B69002B04D10023FB61BB68BB6103E01A
:102D9400BB68FB610023BB61FB68002283F83C2015
:102DA4002AE03B6800937B6900228021F86800F0E8
:102DB4009BFB0346002B01D0032336E0FB69002B69
:102DC4000BD1BB691B881A46FB681B68C2F3080257
:102DD4005A60BB690233BB6107E0FB691A78FB6880
:102DE4001B685A60FB690133FB61FB68DB8C9BB297
:102DF400013B9AB2FB68DA84FB68DB8C9BB2002B44
:102E0400CFD13B6800937B6900224021F86800F031
:102E14006BFB0346002B01D0032306E0FB68202252
:102E240083F83D20002300E0022318462037BD46E6
:102E340080BD80B58AB002AFF860B9603B601346CC
:102E4400FB8000237B61FB6893F83E30DBB2202BD0
:102E540040F08C80BB68002B02D0FB88002B01D192
:102E6400012384E0FB6893F83C30012B01D1022359
:102E74007DE0FB68012283F83C20FB6800221A6491
:102E8400FB68222283F83E20FB6800221A63FEF7C7
:102E9400BBF87861FB68FA889A85FB68FA88DA855A
:102EA400FB689B68B3F5805F08D1FB681B69002B46
:102EB40004D10023FB61BB68BB6103E0BB68FB6119
:102EC4000023BB61FB68002283F83C2043E03B689D
:102ED40000937B6900222021F86800F005FB03467B
:102EE400002B01D0032342E0FB69002B0CD1FB68CB
:102EF4001B685B689BB2C3F308039AB2BB691A8070
:102F0400BB690233BB611FE0FB689B68B3F5805F5C
:102F140007D0FB689B68002B0AD1FB681B69002B58
:102F240006D1FB681B685B68DAB2FB691A7008E0BB
:102F3400FB681B685B68DBB203F07F03DAB2FB69F2
:102F44001A70FB690133FB61FB68DB8D9BB2013BAB
:102F54009AB2FB68DA85FB68DB8D9BB2002BB6D195
:102F6400FB68202283F83E20002300E00223184659
:102F74002037BD4680BD000080B5BAB000AF786090
:102F84007B681B681B68C7F8E4307B681B68DB68D8
:102F9400C7F8E0307B681B685B69C7F8DC30002346
:102FA400C7F8D8300023C7F8D430D7F8E43003F09A
:102FB4000F03C7F8D830D7F8D830002B0FD1D7F883
:102FC400E43003F02003002B09D0D7F8E03003F0FD
:102FD4002003002B03D0786800F0D3FB56E2D7F827
:102FE400D830002B00F0DE80D7F8DC3003F001038A
:102FF400002B06D1D7F8E03003F49073002B00F0D7
:10300400D180D7F8E43003F00103002B0BD0D7F8BC
:10301400E03003F48073002B05D07B681B6C43F015
:1030240001027B681A64D7F8E43003F00403002B30
:103034000BD0D7F8DC3003F00103002B05D07B68FC
:103044001B6C43F002027B681A64D7F8E43003F087
:103054000203002B0BD0D7F8DC3003F00103002B64
:1030640005D07B681B6C43F004027B681A64D7F8B4
:10307400E43003F00803002B11D0D7F8E03003F05C
:103084002003002B05D1D7F8DC3003F00103002B1B
:1030940005D07B681B6C43F008027B681A647B686C
:1030A4001B6C002B00F0ED81D7F8E43003F0200313
:1030B400002B08D0D7F8E03003F02003002B02D017
:1030C400786800F05EFB7B681B685B6903F0400373
:1030D400402B0CBF01230023DBB2C7F8D4307B683C
:1030E4001B6C03F00803002B03D1D7F8D430002B5A
:1030F4004FD0786800F066FA7B681B685B6903F060
:103104004003402B41D17B681B681433C7F89C30C3
:10311400D7F89C3053E8003FC7F89830D7F8983078
:1031240023F04003C7F8D0307B681B681433D7F80A
:10313400D020C7F8A820C7F8A430D7F8A410D7F82F
:10314400A82041E80023C7F8A030D7F8A030002B0E
:10315400D9D17B689B6B002B13D07B689B6B7D4A1A
:103164001A657B689B6B1846FEF7DBF80346002B59
:1031740016D07B689B6B1B6D7A68926B10469847E0
:103184000EE0786800F09AF90AE0786800F096F9A1
:1031940006E0786800F092F97B6800221A6470E116
:1031A40000BF6EE17B681B6B012B40F04A81D7F8AE
:1031B400E43003F01003002B00F04381D7F8E03033
:1031C40003F01003002B00F03C810023BB607B68FC
:1031D4001B681B68BB607B681B685B68BB60BB6863
:1031E4007B681B685B6903F04003402B40F0B480AC
:1031F4007B689B6B1B685B68A7F8BE30B7F8BE3072
:10320400002B00F040817B689B8DB7F8BE209A426A
:1032140080F039817B68B7F8BE20DA857B689B6BC8
:10322400DB69B3F5807F00F088807B681B680C3312
:10323400C7F88830D7F8883053E8003FC7F884309F
:10324400D7F8843023F48073C7F8B8307B681B68E0
:103254000C33D7F8B820C7F89420C7F89030D7F8C3
:103264009010D7F8942041E80023C7F88C30D7F8A1
:103274008C30002BD9D17B681B6814337B677B6F40
:1032840053E8003F3B673B6F23F00103C7F8B430BA
:103294007B681B681433D7F8B420C7F88020FB6719
:1032A400F96FD7F8802041E80023BB67BB6F002B80
:1032B400E1D17B681B6814333B663B6E53E8003FE7
:1032C400FB65FB6D23F04003C7F8B0307B681B68D7
:1032D4001433D7F8B020FA66BB66B96EFA6E41E8CB
:1032E40000237B667B6E002BE3D17B68202283F86E
:1032F4003E207B6800221A637B681B680C33FB64E6
:10330400FB6C53E8003FBB64BB6C23F01003C7F8AD
:10331400AC307B681B680C33D7F8AC20BA657B658E
:10332400796DBA6D41E800233B653B6D002BE3D119
:103334007B689B6B1846FDF784FF7B689A8D7B68DE
:10334400DB8D9BB2D31A9BB21946786800F0C0F8A3
:1033540099E000BF8F3600087B689A8D7B68DB8D0F
:103364009BB2D31AA7F8CE307B68DB8D9BB2002BBF
:1033740000F08B80B7F8CE30002B00F086807B689D
:103384001B680C33BB63BB6B53E8003F7B637B6BF5
:1033940023F49073C7F8C8307B681B680C33D7F8E4
:1033A400C8207A643B64396C7A6C41E80023FB637F
:1033B400FB6B002BE3D17B681B6814337B627B6A55
:1033C40053E8003F3B623B6A23F00103C7F8C43073
:1033D4007B681B681433D7F8C4203A63FB62F96A2C
:1033E4003A6B41E80023BB62BB6A002BE3D17B68E4
:1033F400202283F83E207B6800221A637B681B68C6
:103404000C333B613B6953E8003FFB60FB6823F0EE
:103414001003C7F8C0307B681B680C33D7F8C02092
:10342400FA61BB61B969FA6941E800237B617B6990
:10343400002BE3D1B7F8CE301946786800F048F88D
:1034440023E0D7F8E43003F08003002B09D0D7F849
:10345400E03003F08003002B03D0786800F029F9F2
:1034640014E0D7F8E43003F04003002B0ED0D7F873
:10347400E03003F04003002B08D0786800F069F9CD
:1034840004E000BF02E000BF00E000BFE837BD4633
:1034940080BD00BF80B483B000AF786000BF0C373C
:1034A400BD465DF8047B704780B483B000AF78609C
:1034B40000BF0C37BD465DF8047B704780B483B011
:1034C40000AF786000BF0C37BD465DF8047B7047E1
:1034D40080B483B000AF78600B467B8000BF0C37AC
:1034E400BD465DF8047B704780B590B000AFF860CE
:1034F400B9603B601346FB7150E0BB6CB3F1FF3F16
:103504004CD0BB6C002B07D0FDF77EFD02463B6818
:10351400D31ABA6C9A4241D2FB681B680C33BB6263
:10352400BB6A53E8003F7B627B6A23F4D073FB637E
:10353400FB681B680C33FA6B7A633B63396B7A6BF9
:1035440041E80023FB62FB6A002BE5D1FB681B68A2
:1035540014337B617B6953E8003F3B613B6923F093
:103564000103BB63FB681B681433BA6B3A62FB61EB
:10357400F9693A6A41E80023BB61BB69002BE5D1D4
:10358400FB68202283F83D20FB68202283F83E203C
:10359400FB68002283F83C2003230FE0FB681B68D0
:1035A4001A68BB681340BA689A420CBF012300230F
:1035B400DBB21A46FB799A429FD000231846403763
:1035C400BD4680BD80B495B000AF78607B681B6851
:1035D4000C337B637B6B53E8003F3B633B6B23F40F
:1035E4009073FB647B681B680C33FA6C3A64FB636E
:1035F400F96B3A6C41E80023BB63BB6B002BE5D14C
:103604007B681B6814333B623B6A53E8003FFB61F1
:10361400FB6923F00103BB647B681B681433BA6C39
:10362400FA62BB62B96AFA6A41E800237B627B6A88
:10363400002BE5D17B681B6B012B19D17B681B68C0
:103644000C33FB60FB6853E8003FBB60BB6823F0AE
:1036540010037B647B681B680C337A6CBA617B61F2
:103664007969BA6941E800233B613B69002BE5D1E4
:103674007B68202283F83E207B6800221A6300BF07
:103684005437BD465DF8047B704780B584B000AF05
:1036940078607B689B6BFB60FB680022DA85FB68C3
:1036A4000022DA84F868FFF709FF00BF1037BD462F
:1036B40080BD80B485B000AF78607B6893F83D30FE
:1036C400DBB2212B3ED17B689B68B3F5805F14D1BC
:1036D4007B681B69002B10D17B681B6AFB60FB684D
:1036E4001B881A467B681B68C2F308025A607B6811
:1036F4001B6A9A1C7B681A6208E07B681B6A591C67
:103704007A6811621A787B681B685A607B68DB8C64
:103714009BB2013B9BB27A681946D184002B0FD12E
:103724007B681B68DA687B681B6822F08002DA60B9
:103734007B681B68DA687B681B6842F04002DA60C9
:10374400002300E0022318461437BD465DF8047BCD
:10375400704780B582B000AF78607B681B68DA6818
:103764007B681B6822F04002DA607B68202283F8C1
:103774003D207868FFF78EFE002318460837BD46C3
:1037840080BD80B58CB000AF78607B6893F83E3024
:10379400DBB2222B40F0AB807B689B68B3F5805F83
:1037A40017D17B681B69002B13D10023FB627B6854
:1037B4009B6ABB627B681B685B689BB2C3F30803AC
:1037C4009AB2BB6A1A807B689B6A9A1C7B689A626D
:1037D40026E07B689B6AFB620023BB627B689B6874
:1037E400B3F5805F07D07B689B68002B0AD17B68A8
:1037F4001B69002B06D17B681B685B68DAB2FB6A25
:103804001A7008E07B681B685B68DBB203F07F0317
:10381400DAB2FB6A1A707B689B6A5A1C7B689A62EC
:103824007B68DB8D9BB2013B9BB27A681946D185DC
:10383400002B5AD17B681B68DA687B681B6822F00E
:103844002002DA607B681B68DA687B681B6822F4F4
:103854008072DA607B681B685A697B681B6822F097
:1038640001025A617B68202283F83E207B681B6B2F
:10387400012B35D17B6800221A637B681B680C33EB
:103884007B617B6953E8003F3B613B6923F0100394
:103894007B627B681B680C337A6A3A62FB61F96964
:1038A4003A6A41E80023BB61BB69002BE5D17B6820
:1038B4001B681B6803F01003102B0AD10023FB6064
:1038C4007B681B681B68FB607B681B685B68FB602C
:1038D400FB687B689B8D19467868FFF7F9FD02E069
:1038E4007868FFF7E1FD002302E0002300E00223F3
:1038F40018463037BD4680BD2DE9B04FC0B000AF8B
:10390400C7F8F400D7F8F4301B681B6923F440505F
:10391400D7F8F430D968D7F8F4301A6840EA0103CC
:103924001361D7F8F4309A68D7F8F4301B691A4356
:10393400D7F8F4305B691A43D7F8F430DB691343E2
:10394400C7F8F830D7F8F4301B68DB6823F4164165
:1039540021F00C01D7F8F4301A68D7F8F8300B438B
:10396400D360D7F8F4301B685B6923F44070D7F850
:10397400F4309969D7F8F4301A6840EA01035361C6
:10398400D7F8F4301A688F4B9A4205D0D7F8F43040
:103994001A688D4B9A4204D1FEF7E0FAC7F8FC008E
:1039A40003E0FEF7C7FAC7F8FC00D7F8F430DB6988
:1039B400B3F5004F40F00C81D7F8FC300022C7F873
:1039C400E830C7F8EC20D7E93A4522462B4691184F
:1039D400B9655B41FB65D7E91623214612EB010863
:1039E400294643EB01094FF000024FF000034FEA70
:1039F400C90343EA58734FEAC802904699462346DE
:103A040018EB0303C7F8E0302B4649EB0303C7F870
:103A1400E430D7F8F4305B680022C7F8D830C7F830
:103A2400DC20D7E936120B46DB183B65134642EB24
:103A340003037B65D7E91423D7E93801FCF7C8FBF6
:103A440002460B46614BA3FB02235B091C01D7F81A
:103A5400FC300022C7F8D030C7F8D420D7E9348925
:103A640042464B469118B9645B41FB64D7E9122383
:103A7400414612EB010A494643EB010B4FF00002A9
:103A84004FF000034FEACB0343EA5A734FEACA02EA
:103A940092469B4643461AEB0303C7F8C8304B468D
:103AA4004BEB0303C7F8CC30D7F8F4305B68002243
:103AB400C7F8C030C7F8C420D7E930120B46DB186A
:103AC4003B64134642EB03037B64D7E91023D7E935
:103AD4003201FCF77DFB02460B4611463B4BA3FB30
:103AE40001235B09642202FB03F3CB1ADB0003F11D
:103AF4003202364BA3FB02235B095B0003F4F87329
:103B04001C44D7F8FC300022C7F8B830C7F8BC20F2
:103B1400D7E92E8942464B469118B9635B41FB6352
:103B2400D7E90E2341465118396349464B417B631B
:103B34004FF000024FF00003D7E90CAB5946CB001D
:103B4400514643EA51735146CA001046194603468A
:103B540042469B18C7F8B0304B460A4642EB030373
:103B6400C7F8B430D7F8F4305B680022C7F8A8303F
:103B7400C7F8AC20D7E92A120B46DB18BB62134600
:103B840042EB0303FB62D7E90A23D7E92C01FCF7D4
:103B94001FFB02460B460D4BA3FB02135B0964217A
:103BA40001FB03F3D31ADB003233084AA2FB0323DD
:103BB4005B0903F00702D7F8F4301B6822449A60CB
:103BC40005E100BF00100140001401401F85EB51C6
:103BD400D7F8FC300022C7F8A030C7F8A420D7E9F2
:103BE400288942464B46911839625B417B62D7E98A
:103BF400082341465418494643EB01054FF000029F
:103C04004FF00003EB0043EA5473E20014461D46F0
:103C14004346E318C7F898304B4645EB0303C7F80F
:103C24009C30D7F8F4305B680022C7F89030C7F8AE
:103C340094204FF000024FF00003D7E924452946B1
:103C44008B00214643EA917321468A00D7E9260175
:103C5400FCF7BEFA02460B46604BA3FB02235B094A
:103C64001C01D7F8FC300022C7F88830C7F88C2034
:103C7400D7E9228942464B469118B9615B41FB6101
:103C8400D7E9062341465118396149464B417B61C6
:103C94004FF000024FF00003D7E904AB5946CB00C4
:103CA400514643EA51735146CA0010461946034629
:103CB40042469B18C7F880304B460A4642EB030342
:103CC400C7F88430D7F8F4305B680022BB67FA6722
:103CD4004FF000024FF00003D7E91E8949468B00DC
:103CE400414643EA917341468A00D7E92001FCF733
:103CF4006FFA02460B46394BA3FB02135B0964219E
:103D040001FB03F3D31A1B013233344AA2FB03230E
:103D14005B0903F0F0031C44D7F8FC3000223B6736
:103D24007A67D7E91C8942464B469118B9605B41D2
:103D3400FB60D7E9022341465118396049464B419B
:103D44007B604FF000024FF00003D7E900AB594607
:103D5400CB00514643EA51735146CA0010461946F6
:103D6400034642469B18BB664B460A4642EB030396
:103D7400FB66D7F8F4305B6800223B667A664FF046
:103D840000024FF00003D7E9188949468B004146E9
:103D940043EA917341468A00D7E91A01FCF718FAFD
:103DA40002460B460D4BA3FB02135B09642101FB86
:103DB40003F3D31A1B013233084AA2FB03235B0922
:103DC40003F00F02D7F8F4301B6822449A6000BF56
:103DD40007F58077BD46BDE8B08F00BF1F85EB5166
:103DE40070B50D4D0D4C641BA4100026A64209D1DC
:103DF4000B4D0C4C00F020F8641BA4100026A642C6
:103E040005D170BD55F8043B98470136EEE755F8E7
:103E1400043B98470136F2E7743E0008743E0008FC
:103E2400743E0008783E000802440346934200D1E1
:103E3400704703F8011BF9E7F8B500BFF8BC08BCEC
:103E44009E467047F8B500BFF8BC08BC9E46704754
:103E54000000000000000000010203040607080936
:083E640000000000010203044C
:083E6C0098C3FF7F0100000074
:043E7400B901000888
:043E780095010008A8
:0C3E7C000024F400100000000100000011
:0400000508000EEDF4
:00000001FF
